{
  "contractName": "YiTokenContribution",
  "abi": [
    {
      "constant": true,
      "inputs": [],
      "name": "name",
      "outputs": [
        {
          "name": "",
          "type": "string"
        }
      ],
      "payable": false,
      "stateMutability": "view",
      "type": "function"
    },
    {
      "constant": true,
      "inputs": [],
      "name": "minter",
      "outputs": [
        {
          "name": "",
          "type": "address"
        }
      ],
      "payable": false,
      "stateMutability": "view",
      "type": "function"
    },
    {
      "constant": false,
      "inputs": [
        {
          "name": "_spender",
          "type": "address"
        },
        {
          "name": "_value",
          "type": "uint256"
        }
      ],
      "name": "approve",
      "outputs": [
        {
          "name": "success",
          "type": "bool"
        }
      ],
      "payable": false,
      "stateMutability": "nonpayable",
      "type": "function"
    },
    {
      "constant": true,
      "inputs": [],
      "name": "address5",
      "outputs": [
        {
          "name": "",
          "type": "address"
        }
      ],
      "payable": false,
      "stateMutability": "view",
      "type": "function"
    },
    {
      "constant": true,
      "inputs": [],
      "name": "totalSupply",
      "outputs": [
        {
          "name": "",
          "type": "uint256"
        }
      ],
      "payable": false,
      "stateMutability": "view",
      "type": "function"
    },
    {
      "constant": true,
      "inputs": [],
      "name": "yiport",
      "outputs": [
        {
          "name": "",
          "type": "address"
        }
      ],
      "payable": false,
      "stateMutability": "view",
      "type": "function"
    },
    {
      "constant": true,
      "inputs": [],
      "name": "address3",
      "outputs": [
        {
          "name": "",
          "type": "address"
        }
      ],
      "payable": false,
      "stateMutability": "view",
      "type": "function"
    },
    {
      "constant": false,
      "inputs": [
        {
          "name": "_from",
          "type": "address"
        },
        {
          "name": "_to",
          "type": "address"
        },
        {
          "name": "_value",
          "type": "uint256"
        }
      ],
      "name": "transferFrom",
      "outputs": [
        {
          "name": "success",
          "type": "bool"
        }
      ],
      "payable": false,
      "stateMutability": "nonpayable",
      "type": "function"
    },
    {
      "constant": true,
      "inputs": [],
      "name": "decimals",
      "outputs": [
        {
          "name": "",
          "type": "uint256"
        }
      ],
      "payable": false,
      "stateMutability": "view",
      "type": "function"
    },
    {
      "constant": true,
      "inputs": [],
      "name": "address1",
      "outputs": [
        {
          "name": "",
          "type": "address"
        }
      ],
      "payable": false,
      "stateMutability": "view",
      "type": "function"
    },
    {
      "constant": false,
      "inputs": [
        {
          "name": "_ethAccount",
          "type": "address"
        },
        {
          "name": "_wanAccount",
          "type": "address"
        }
      ],
      "name": "addAccountMap",
      "outputs": [],
      "payable": false,
      "stateMutability": "nonpayable",
      "type": "function"
    },
    {
      "constant": true,
      "inputs": [],
      "name": "YI_TOTAL_SUPPLY",
      "outputs": [
        {
          "name": "",
          "type": "uint256"
        }
      ],
      "payable": false,
      "stateMutability": "view",
      "type": "function"
    },
    {
      "constant": true,
      "inputs": [
        {
          "name": "_owner",
          "type": "address"
        }
      ],
      "name": "balanceOf",
      "outputs": [
        {
          "name": "balance",
          "type": "uint256"
        }
      ],
      "payable": false,
      "stateMutability": "view",
      "type": "function"
    },
    {
      "constant": false,
      "inputs": [],
      "name": "acceptOwnership",
      "outputs": [],
      "payable": false,
      "stateMutability": "nonpayable",
      "type": "function"
    },
    {
      "constant": false,
      "inputs": [
        {
          "name": "receipent",
          "type": "address"
        },
        {
          "name": "amount",
          "type": "uint256"
        }
      ],
      "name": "mintToken",
      "outputs": [
        {
          "name": "",
          "type": "bool"
        }
      ],
      "payable": false,
      "stateMutability": "nonpayable",
      "type": "function"
    },
    {
      "constant": false,
      "inputs": [
        {
          "name": "_addr",
          "type": "address"
        },
        {
          "name": "amount",
          "type": "uint256"
        }
      ],
      "name": "destoryToken",
      "outputs": [],
      "payable": false,
      "stateMutability": "nonpayable",
      "type": "function"
    },
    {
      "constant": true,
      "inputs": [],
      "name": "owner",
      "outputs": [
        {
          "name": "",
          "type": "address"
        }
      ],
      "payable": false,
      "stateMutability": "view",
      "type": "function"
    },
    {
      "constant": true,
      "inputs": [],
      "name": "symbol",
      "outputs": [
        {
          "name": "",
          "type": "string"
        }
      ],
      "payable": false,
      "stateMutability": "view",
      "type": "function"
    },
    {
      "constant": true,
      "inputs": [],
      "name": "address2",
      "outputs": [
        {
          "name": "",
          "type": "address"
        }
      ],
      "payable": false,
      "stateMutability": "view",
      "type": "function"
    },
    {
      "constant": true,
      "inputs": [],
      "name": "address4",
      "outputs": [
        {
          "name": "",
          "type": "address"
        }
      ],
      "payable": false,
      "stateMutability": "view",
      "type": "function"
    },
    {
      "constant": false,
      "inputs": [
        {
          "name": "_newOwner",
          "type": "address"
        }
      ],
      "name": "changeOwner",
      "outputs": [],
      "payable": false,
      "stateMutability": "nonpayable",
      "type": "function"
    },
    {
      "constant": true,
      "inputs": [],
      "name": "MAX_TOTAL_TOKEN_AMOUNT",
      "outputs": [
        {
          "name": "",
          "type": "uint256"
        }
      ],
      "payable": false,
      "stateMutability": "view",
      "type": "function"
    },
    {
      "constant": false,
      "inputs": [
        {
          "name": "_to",
          "type": "address"
        },
        {
          "name": "_value",
          "type": "uint256"
        }
      ],
      "name": "transfer",
      "outputs": [
        {
          "name": "success",
          "type": "bool"
        }
      ],
      "payable": false,
      "stateMutability": "nonpayable",
      "type": "function"
    },
    {
      "constant": true,
      "inputs": [],
      "name": "newOwner",
      "outputs": [
        {
          "name": "",
          "type": "address"
        }
      ],
      "payable": false,
      "stateMutability": "view",
      "type": "function"
    },
    {
      "constant": false,
      "inputs": [
        {
          "name": "_fromAddr",
          "type": "address"
        },
        {
          "name": "_toAddr",
          "type": "address"
        },
        {
          "name": "amount",
          "type": "uint256"
        }
      ],
      "name": "transferCross",
      "outputs": [],
      "payable": false,
      "stateMutability": "nonpayable",
      "type": "function"
    },
    {
      "constant": true,
      "inputs": [
        {
          "name": "_owner",
          "type": "address"
        },
        {
          "name": "_spender",
          "type": "address"
        }
      ],
      "name": "allowance",
      "outputs": [
        {
          "name": "remaining",
          "type": "uint256"
        }
      ],
      "payable": false,
      "stateMutability": "view",
      "type": "function"
    },
    {
      "constant": true,
      "inputs": [
        {
          "name": "",
          "type": "address"
        }
      ],
      "name": "accountsmap",
      "outputs": [
        {
          "name": "",
          "type": "address"
        }
      ],
      "payable": false,
      "stateMutability": "view",
      "type": "function"
    },
    {
      "inputs": [
        {
          "name": "_yiport",
          "type": "address"
        }
      ],
      "payable": false,
      "stateMutability": "nonpayable",
      "type": "constructor"
    },
    {
      "payable": false,
      "stateMutability": "nonpayable",
      "type": "fallback"
    },
    {
      "anonymous": false,
      "inputs": [
        {
          "indexed": false,
          "name": "receipent",
          "type": "address"
        },
        {
          "indexed": false,
          "name": "amount",
          "type": "uint256"
        },
        {
          "indexed": false,
          "name": "sum",
          "type": "uint256"
        }
      ],
      "name": "EventMint",
      "type": "event"
    },
    {
      "anonymous": false,
      "inputs": [
        {
          "indexed": false,
          "name": "_addr",
          "type": "address"
        },
        {
          "indexed": false,
          "name": "amount",
          "type": "uint256"
        }
      ],
      "name": "EventDestory",
      "type": "event"
    },
    {
      "anonymous": false,
      "inputs": [
        {
          "indexed": false,
          "name": "_fromAddr",
          "type": "address"
        },
        {
          "indexed": false,
          "name": "_toAddr",
          "type": "address"
        },
        {
          "indexed": false,
          "name": "amount",
          "type": "uint256"
        }
      ],
      "name": "EventTransferCross",
      "type": "event"
    },
    {
      "anonymous": false,
      "inputs": [
        {
          "indexed": true,
          "name": "_from",
          "type": "address"
        },
        {
          "indexed": true,
          "name": "_to",
          "type": "address"
        },
        {
          "indexed": false,
          "name": "_value",
          "type": "uint256"
        }
      ],
      "name": "Transfer",
      "type": "event"
    },
    {
      "anonymous": false,
      "inputs": [
        {
          "indexed": true,
          "name": "_owner",
          "type": "address"
        },
        {
          "indexed": true,
          "name": "_spender",
          "type": "address"
        },
        {
          "indexed": false,
          "name": "_value",
          "type": "uint256"
        }
      ],
      "name": "Approval",
      "type": "event"
    }
  ],
  "bytecode": "0x60806040523480156200001157600080fd5b5060405160208062001cca8339810180604052810190808051906020019092919050505030336000806101000a81548173ffffffffffffffffffffffffffffffffffffffff021916908373ffffffffffffffffffffffffffffffffffffffff16021790555080600560006101000a81548173ffffffffffffffffffffffffffffffffffffffff021916908373ffffffffffffffffffffffffffffffffffffffff1602179055505080600760006101000a81548173ffffffffffffffffffffffffffffffffffffffff021916908373ffffffffffffffffffffffffffffffffffffffff160217905550620001297364886f67868a73e18b9f9c7cc33d333d6508767d60c8620001f5640100000000026401000000009004565b506200015a73091ea3aafedf11f2b0684dcf9afc9a5a05d5992c60c8620001f5640100000000026401000000009004565b506200018b73caa2fae6ed21565c50c411a5f5c6b95d9ee8d6a560c8620001f5640100000000026401000000009004565b50620001bc73c6366f422639048db0baa048771877ac5cd0583760c8620001f5640100000000026401000000009004565b50620001ed7321e2e42bfdadf8963c097fcd8aae29aa06e1839760c8620001f5640100000000026401000000009004565b5050620003a2565b60006200025982600360008673ffffffffffffffffffffffffffffffffffffffff1673ffffffffffffffffffffffffffffffffffffffff168152602001908152602001600020546200038364010000000002620018b5179091906401000000009004565b600360008573ffffffffffffffffffffffffffffffffffffffff1673ffffffffffffffffffffffffffffffffffffffff16815260200190815260200160002081905550620002c1826002546200038364010000000002620018b5179091906401000000009004565b6002819055507f0cbbf55ccab9365ac7b38d9884f96cec8088f9b084c868972ab800f9e44c19188383600360008773ffffffffffffffffffffffffffffffffffffffff1673ffffffffffffffffffffffffffffffffffffffff16815260200190815260200160002054604051808473ffffffffffffffffffffffffffffffffffffffff1673ffffffffffffffffffffffffffffffffffffffff168152602001838152602001828152602001935050505060405180910390a16001905092915050565b60008082840190508381101515156200039857fe5b8091505092915050565b61191880620003b26000396000f30060806040526004361061015f576000357c0100000000000000000000000000000000000000000000000000000000900463ffffffff16806306fdde03146101715780630754617214610201578063095ea7b3146102585780630e417055146102bd57806318160ddd146103145780631b1681e11461033f5780631e38046c1461039657806323b872dd146103ed578063313ce567146104725780633a36399e1461049d5780634d119677146104f45780635c3c82181461055757806370a082311461058257806379ba5097146105d957806379c65068146105f05780638a872f52146106555780638da5cb5b146106a257806395d89b41146106f95780639eea4a3a14610789578063a1c2f644146107e0578063a6f9dae114610837578063a89c5be01461087a578063a9059cbb146108a5578063d4ee1d901461090a578063dc50689114610961578063dd62ed3e146109ce578063f1cd030f14610a45575b34801561016b57600080fd5b50600080fd5b34801561017d57600080fd5b50610186610ac8565b6040518080602001828103825283818151815260200191508051906020019080838360005b838110156101c65780820151818401526020810190506101ab565b50505050905090810190601f1680156101f35780820380516001836020036101000a031916815260200191505b509250505060405180910390f35b34801561020d57600080fd5b50610216610b01565b604051808273ffffffffffffffffffffffffffffffffffffffff1673ffffffffffffffffffffffffffffffffffffffff16815260200191505060405180910390f35b34801561026457600080fd5b506102a3600480360381019080803573ffffffffffffffffffffffffffffffffffffffff16906020019092919080359060200190929190505050610b27565b604051808215151515815260200191505060405180910390f35b3480156102c957600080fd5b506102d2610cc5565b604051808273ffffffffffffffffffffffffffffffffffffffff1673ffffffffffffffffffffffffffffffffffffffff16815260200191505060405180910390f35b34801561032057600080fd5b50610329610cdd565b6040518082815260200191505060405180910390f35b34801561034b57600080fd5b50610354610ce3565b604051808273ffffffffffffffffffffffffffffffffffffffff1673ffffffffffffffffffffffffffffffffffffffff16815260200191505060405180910390f35b3480156103a257600080fd5b506103ab610d09565b604051808273ffffffffffffffffffffffffffffffffffffffff1673ffffffffffffffffffffffffffffffffffffffff16815260200191505060405180910390f35b3480156103f957600080fd5b50610458600480360381019080803573ffffffffffffffffffffffffffffffffffffffff169060200190929190803573ffffffffffffffffffffffffffffffffffffffff16906020019092919080359060200190929190505050610d21565b604051808215151515815260200191505060405180910390f35b34801561047e57600080fd5b50610487610faa565b6040518082815260200191505060405180910390f35b3480156104a957600080fd5b506104b2610faf565b604051808273ffffffffffffffffffffffffffffffffffffffff1673ffffffffffffffffffffffffffffffffffffffff16815260200191505060405180910390f35b34801561050057600080fd5b50610555600480360381019080803573ffffffffffffffffffffffffffffffffffffffff169060200190929190803573ffffffffffffffffffffffffffffffffffffffff169060200190929190505050610fc7565b005b34801561056357600080fd5b5061056c611049565b6040518082815260200191505060405180910390f35b34801561058e57600080fd5b506105c3600480360381019080803573ffffffffffffffffffffffffffffffffffffffff169060200190929190505050611056565b6040518082815260200191505060405180910390f35b3480156105e557600080fd5b506105ee61109f565b005b3480156105fc57600080fd5b5061063b600480360381019080803573ffffffffffffffffffffffffffffffffffffffff1690602001909291908035906020019092919050505061115a565b604051808215151515815260200191505060405180910390f35b34801561066157600080fd5b506106a0600480360381019080803573ffffffffffffffffffffffffffffffffffffffff169060200190929190803590602001909291905050506112c8565b005b3480156106ae57600080fd5b506106b7611434565b604051808273ffffffffffffffffffffffffffffffffffffffff1673ffffffffffffffffffffffffffffffffffffffff16815260200191505060405180910390f35b34801561070557600080fd5b5061070e611459565b6040518080602001828103825283818151815260200191508051906020019080838360005b8381101561074e578082015181840152602081019050610733565b50505050905090810190601f16801561077b5780820380516001836020036101000a031916815260200191505b509250505060405180910390f35b34801561079557600080fd5b5061079e611492565b604051808273ffffffffffffffffffffffffffffffffffffffff1673ffffffffffffffffffffffffffffffffffffffff16815260200191505060405180910390f35b3480156107ec57600080fd5b506107f56114aa565b604051808273ffffffffffffffffffffffffffffffffffffffff1673ffffffffffffffffffffffffffffffffffffffff16815260200191505060405180910390f35b34801561084357600080fd5b50610878600480360381019080803573ffffffffffffffffffffffffffffffffffffffff1690602001909291905050506114c2565b005b34801561088657600080fd5b5061088f611561565b6040518082815260200191505060405180910390f35b3480156108b157600080fd5b506108f0600480360381019080803573ffffffffffffffffffffffffffffffffffffffff1690602001909291908035906020019092919050505061156e565b604051808215151515815260200191505060405180910390f35b34801561091657600080fd5b5061091f6116e4565b604051808273ffffffffffffffffffffffffffffffffffffffff1673ffffffffffffffffffffffffffffffffffffffff16815260200191505060405180910390f35b34801561096d57600080fd5b506109cc600480360381019080803573ffffffffffffffffffffffffffffffffffffffff169060200190929190803573ffffffffffffffffffffffffffffffffffffffff1690602001909291908035906020019092919050505061170a565b005b3480156109da57600080fd5b50610a2f600480360381019080803573ffffffffffffffffffffffffffffffffffffffff169060200190929190803573ffffffffffffffffffffffffffffffffffffffff1690602001909291905050506117fb565b6040518082815260200191505060405180910390f35b348015610a5157600080fd5b50610a86600480360381019080803573ffffffffffffffffffffffffffffffffffffffff169060200190929190505050611882565b604051808273ffffffffffffffffffffffffffffffffffffffff1673ffffffffffffffffffffffffffffffffffffffff16815260200191505060405180910390f35b6040805190810160405280600681526020017f5969436f696e000000000000000000000000000000000000000000000000000081525081565b600560009054906101000a900473ffffffffffffffffffffffffffffffffffffffff1681565b6000604060048101600036905010151515610b4157600080fd5b6000831480610bcc57506000600460003373ffffffffffffffffffffffffffffffffffffffff1673ffffffffffffffffffffffffffffffffffffffff16815260200190815260200160002060008673ffffffffffffffffffffffffffffffffffffffff1673ffffffffffffffffffffffffffffffffffffffff16815260200190815260200160002054145b1515610bd457fe5b82600460003373ffffffffffffffffffffffffffffffffffffffff1673ffffffffffffffffffffffffffffffffffffffff16815260200190815260200160002060008673ffffffffffffffffffffffffffffffffffffffff1673ffffffffffffffffffffffffffffffffffffffff168152602001908152602001600020819055508373ffffffffffffffffffffffffffffffffffffffff163373ffffffffffffffffffffffffffffffffffffffff167f8c5be1e5ebec7d5bd14f71427d1e84f3dd0314c0f7b2291e5b200ac8c7c3b925856040518082815260200191505060405180910390a3600191505092915050565b7321e2e42bfdadf8963c097fcd8aae29aa06e1839781565b60025481565b600760009054906101000a900473ffffffffffffffffffffffffffffffffffffffff1681565b73caa2fae6ed21565c50c411a5f5c6b95d9ee8d6a581565b6000606060048101600036905010151515610d3b57600080fd5b82600360008773ffffffffffffffffffffffffffffffffffffffff1673ffffffffffffffffffffffffffffffffffffffff1681526020019081526020016000205410158015610e06575082600460008773ffffffffffffffffffffffffffffffffffffffff1673ffffffffffffffffffffffffffffffffffffffff16815260200190815260200160002060003373ffffffffffffffffffffffffffffffffffffffff1673ffffffffffffffffffffffffffffffffffffffff1681526020019081526020016000205410155b15610f9d5782600360008673ffffffffffffffffffffffffffffffffffffffff1673ffffffffffffffffffffffffffffffffffffffff1681526020019081526020016000206000828254019250508190555082600360008773ffffffffffffffffffffffffffffffffffffffff1673ffffffffffffffffffffffffffffffffffffffff1681526020019081526020016000206000828254039250508190555082600460008773ffffffffffffffffffffffffffffffffffffffff1673ffffffffffffffffffffffffffffffffffffffff16815260200190815260200160002060003373ffffffffffffffffffffffffffffffffffffffff1673ffffffffffffffffffffffffffffffffffffffff168152602001908152602001600020600082825403925050819055508373ffffffffffffffffffffffffffffffffffffffff168573ffffffffffffffffffffffffffffffffffffffff167fddf252ad1be2c89b69c2b068fc378daa952ba7f163c4a11628f55a4df523b3ef856040518082815260200191505060405180910390a360019150610fa2565b600091505b509392505050565b601281565b7364886f67868a73e18b9f9c7cc33d333d6508767d81565b80600660008473ffffffffffffffffffffffffffffffffffffffff1673ffffffffffffffffffffffffffffffffffffffff16815260200190815260200160002060006101000a81548173ffffffffffffffffffffffffffffffffffffffff021916908373ffffffffffffffffffffffffffffffffffffffff1602179055505050565b683635c9adc5dea0000081565b6000600360008373ffffffffffffffffffffffffffffffffffffffff1673ffffffffffffffffffffffffffffffffffffffff168152602001908152602001600020549050919050565b600160009054906101000a900473ffffffffffffffffffffffffffffffffffffffff1673ffffffffffffffffffffffffffffffffffffffff163373ffffffffffffffffffffffffffffffffffffffff16141561115857600160009054906101000a900473ffffffffffffffffffffffffffffffffffffffff166000806101000a81548173ffffffffffffffffffffffffffffffffffffffff021916908373ffffffffffffffffffffffffffffffffffffffff1602179055505b565b60006111ae82600360008673ffffffffffffffffffffffffffffffffffffffff1673ffffffffffffffffffffffffffffffffffffffff168152602001908152602001600020546118b590919063ffffffff16565b600360008573ffffffffffffffffffffffffffffffffffffffff1673ffffffffffffffffffffffffffffffffffffffff16815260200190815260200160002081905550611206826002546118b590919063ffffffff16565b6002819055507f0cbbf55ccab9365ac7b38d9884f96cec8088f9b084c868972ab800f9e44c19188383600360008773ffffffffffffffffffffffffffffffffffffffff1673ffffffffffffffffffffffffffffffffffffffff16815260200190815260200160002054604051808473ffffffffffffffffffffffffffffffffffffffff1673ffffffffffffffffffffffffffffffffffffffff168152602001838152602001828152602001935050505060405180910390a16001905092915050565b80600360008473ffffffffffffffffffffffffffffffffffffffff1673ffffffffffffffffffffffffffffffffffffffff1681526020019081526020016000205411151561131557600080fd5b61136781600360008573ffffffffffffffffffffffffffffffffffffffff1673ffffffffffffffffffffffffffffffffffffffff168152602001908152602001600020546118d390919063ffffffff16565b600360008473ffffffffffffffffffffffffffffffffffffffff1673ffffffffffffffffffffffffffffffffffffffff168152602001908152602001600020819055506113bf816002546118d390919063ffffffff16565b6002819055507f82fb6119df4cd402a272a2d531bc28de741cd880eadeb937bafa6026655f8ee28282604051808373ffffffffffffffffffffffffffffffffffffffff1673ffffffffffffffffffffffffffffffffffffffff1681526020018281526020019250505060405180910390a15050565b6000809054906101000a900473ffffffffffffffffffffffffffffffffffffffff1681565b6040805190810160405280600281526020017f594900000000000000000000000000000000000000000000000000000000000081525081565b73091ea3aafedf11f2b0684dcf9afc9a5a05d5992c81565b73c6366f422639048db0baa048771877ac5cd0583781565b6000809054906101000a900473ffffffffffffffffffffffffffffffffffffffff1673ffffffffffffffffffffffffffffffffffffffff163373ffffffffffffffffffffffffffffffffffffffff1614151561151d57600080fd5b80600160006101000a81548173ffffffffffffffffffffffffffffffffffffffff021916908373ffffffffffffffffffffffffffffffffffffffff16021790555050565b683635c9adc5dea0000081565b600060406004810160003690501015151561158857600080fd5b82600360003373ffffffffffffffffffffffffffffffffffffffff1673ffffffffffffffffffffffffffffffffffffffff168152602001908152602001600020541015156116d85782600360003373ffffffffffffffffffffffffffffffffffffffff1673ffffffffffffffffffffffffffffffffffffffff1681526020019081526020016000206000828254039250508190555082600360008673ffffffffffffffffffffffffffffffffffffffff1673ffffffffffffffffffffffffffffffffffffffff168152602001908152602001600020600082825401925050819055508373ffffffffffffffffffffffffffffffffffffffff163373ffffffffffffffffffffffffffffffffffffffff167fddf252ad1be2c89b69c2b068fc378daa952ba7f163c4a11628f55a4df523b3ef856040518082815260200191505060405180910390a3600191506116dd565b600091505b5092915050565b600160009054906101000a900473ffffffffffffffffffffffffffffffffffffffff1681565b80600360008573ffffffffffffffffffffffffffffffffffffffff1673ffffffffffffffffffffffffffffffffffffffff1681526020019081526020016000205411151561175757600080fd5b7f8998206b0c81437eec934b1cb896fa7b90bd567c7807be9523805e2fc63a8c48838383604051808473ffffffffffffffffffffffffffffffffffffffff1673ffffffffffffffffffffffffffffffffffffffff1681526020018373ffffffffffffffffffffffffffffffffffffffff1673ffffffffffffffffffffffffffffffffffffffff168152602001828152602001935050505060405180910390a1505050565b6000600460008473ffffffffffffffffffffffffffffffffffffffff1673ffffffffffffffffffffffffffffffffffffffff16815260200190815260200160002060008373ffffffffffffffffffffffffffffffffffffffff1673ffffffffffffffffffffffffffffffffffffffff16815260200190815260200160002054905092915050565b60066020528060005260406000206000915054906101000a900473ffffffffffffffffffffffffffffffffffffffff1681565b60008082840190508381101515156118c957fe5b8091505092915050565b60008282111515156118e157fe5b8183039050929150505600a165627a7a72305820ab5f29689ca5e5ff3284d11db1e719cebf2293747fc7b6c2630ae915c3a0fc470029",
  "source": "pragma solidity ^0.4.22;\nimport \"./SafeMath.sol\";\nimport \"./Owned.sol\";\nimport \"./YiToken.sol\";\n\ncontract YiTokenContribution is Owned,YiToken {\n    using SafeMath for uint;\n    uint public constant YI_TOTAL_SUPPLY = 1000 ether;\n    address public yiport;\n\n//   address[5] public constant addressAccounts; = [0x64886f67868a73e18b9f9c7cc33d333d6508767d, 0x091ea3aafedf11f2b0684dcf9afc9a5a05d5992c, 0xcaa2fae6ed21565c50c411a5f5c6b95d9ee8d6a5, 0xc6366f422639048db0baa048771877ac5cd05837, 0x21e2e42bfdadf8963c097fcd8aae29aa06e18397];\n    address public constant address1=0x64886f67868a73e18b9f9c7cc33d333d6508767d;\n    address public constant address2=0x091ea3aafedf11f2b0684dcf9afc9a5a05d5992c;\n    address public constant address3=0xcaa2fae6ed21565c50c411a5f5c6b95d9ee8d6a5;\n    address public constant address4=0xc6366f422639048db0baa048771877ac5cd05837;\n    address public constant address5=0x21e2e42bfdadf8963c097fcd8aae29aa06e18397;\n\n\n    //YiToken public yiToken;\n    constructor(address _yiport) YiToken(this) public {\n        yiport = _yiport;\n        //yiToken = YiToken(_yitoken);\n       // for(uint i=0; i< 5;i++){\n       //     yiToken.mintToken(addressAccounts[i],200);\n       // }\n        mintToken(address1,200);\n        mintToken(address2,200);\n        mintToken(address3,200);\n        mintToken(address4,200);\n        mintToken(address5,200);\n    }\n    function() public{\n        revert();\n\n    }\n\n\n\n}\n",
  "sourcePath": "/home/hlf/wxhks/yitocketh_cross/contracts/YiTokenContribution.sol",
  "compiler": {
    "name": "solc",
    "version": "0.4.24+commit.e67f0147.Emscripten.clang"
  },
  "schemaVersion": "2.0.1",
  "updatedAt": "2018-09-04T07:30:49.953Z"
}